{
  "contractName": "ErrorHandling",
  "abi": [
    {
      "inputs": [],
      "name": "j",
      "outputs": [
        {
          "internalType": "uint256",
          "name": "",
          "type": "uint256"
        }
      ],
      "stateMutability": "view",
      "type": "function",
      "constant": true
    },
    {
      "inputs": [],
      "name": "s",
      "outputs": [
        {
          "internalType": "uint256",
          "name": "",
          "type": "uint256"
        }
      ],
      "stateMutability": "view",
      "type": "function",
      "constant": true
    },
    {
      "inputs": [],
      "name": "y",
      "outputs": [
        {
          "internalType": "uint256",
          "name": "",
          "type": "uint256"
        }
      ],
      "stateMutability": "view",
      "type": "function",
      "constant": true
    },
    {
      "inputs": [
        {
          "internalType": "uint256",
          "name": "_x",
          "type": "uint256"
        }
      ],
      "name": "testRequire",
      "outputs": [],
      "stateMutability": "nonpayable",
      "type": "function"
    },
    {
      "inputs": [
        {
          "internalType": "uint256",
          "name": "_b",
          "type": "uint256"
        }
      ],
      "name": "testRevert",
      "outputs": [],
      "stateMutability": "nonpayable",
      "type": "function"
    },
    {
      "inputs": [],
      "name": "testAssert",
      "outputs": [],
      "stateMutability": "nonpayable",
      "type": "function"
    }
  ],
  "bytecode": "0x6080604052600a600055600160025534801561001a57600080fd5b506104548061002a6000396000f3fe608060405234801561001057600080fd5b50600436106100625760003560e01c806320987767146100675780632b813bc01461008357806386b714e21461008d578063a56dfe4a146100ab578063b582ec5f146100c9578063b8bd717f146100e7575b600080fd5b610081600480360381019061007c9190610238565b610103565b005b61008b610161565b005b61009561018e565b6040516100a29190610274565b60405180910390f35b6100b3610194565b6040516100c09190610274565b60405180910390f35b6100d161019a565b6040516100de9190610274565b60405180910390f35b61010160048036038101906100fc9190610238565b6101a0565b005b600a811015610147576040517f08c379a000000000000000000000000000000000000000000000000000000000815260040161013e906102ec565b60405180910390fd5b6000808154809291906101599061033b565b919050555050565b60006001541461017457610173610383565b5b600260008154809291906101879061033b565b9190505550565b60015481565b60005481565b60025481565b600a81116101e3576040517f08c379a00000000000000000000000000000000000000000000000000000000081526004016101da906103fe565b60405180910390fd5b6000808154809291906101f59061033b565b919050555050565b600080fd5b6000819050919050565b61021581610202565b811461022057600080fd5b50565b6000813590506102328161020c565b92915050565b60006020828403121561024e5761024d6101fd565b5b600061025c84828501610223565b91505092915050565b61026e81610202565b82525050565b60006020820190506102896000830184610265565b92915050565b600082825260208201905092915050565b7f62206973206c657373207468616e203130000000000000000000000000000000600082015250565b60006102d660118361028f565b91506102e1826102a0565b602082019050919050565b60006020820190508181036000830152610305816102c9565b9050919050565b7f4e487b7100000000000000000000000000000000000000000000000000000000600052601160045260246000fd5b600061034682610202565b91507fffffffffffffffffffffffffffffffffffffffffffffffffffffffffffffffff82036103785761037761030c565b5b600182019050919050565b7f4e487b7100000000000000000000000000000000000000000000000000000000600052600160045260246000fd5b7f78206973206c657373207468616e203130000000000000000000000000000000600082015250565b60006103e860118361028f565b91506103f3826103b2565b602082019050919050565b60006020820190508181036000830152610417816103db565b905091905056fea2646970667358221220b272299c2ba4b7f8db84c76cd0e6f43cba16b99396c2fb37abf9c893ee65f86264736f6c63430008110033",
  "immutableReferences": {},
  "source": "\n// SPDX-License-Identifier: MIT\n// compiler version must be greater than or equal to 0.8.17 and less than 0.9.0\npragma solidity ^0.8.17;\n\ncontract ErrorHandling {\n    uint public y=10;\n    uint public s;\n    uint public j=1;\n\n    function testRequire(uint _x) external    {\n        require(_x>10,\"x is less than 10\");\n        y++;\n    }\n    function testRevert(uint _b) external {\n        if(_b<10){\n            revert(\"b is less than 10\");\n        }\n        y++;\n    }\n    function testAssert() external  {\n        assert(s==0);\n        j++;\n    }\n    \n}",
  "sourcePath": "/workspace/EthIntermediateMod1/contracts/HelloWorld.sol",
  "compiler": {
    "name": "solc",
    "version": "0.8.17+commit.8df45f5f.Emscripten.clang"
  },
  "schemaVersion": "3.4.16",
  "updatedAt": "2024-05-29T21:07:26.912Z",
  "networkType": "ethereum",
  "devdoc": {
    "kind": "dev",
    "methods": {},
    "version": 1
  },
  "userdoc": {
    "kind": "user",
    "methods": {},
    "version": 1
  }
}